:020000040000FA
:04000000AFEF00F06E
:06000800518268EF02F0D6
:100018005180E8CF4AF0E0CF4BF0FACF4CF0FBCF5D
:100028004DF076AC1AEF00F01CEF00F027EF00F06F
:1000380077AC21EF00F023EF00F027EF00F036EC6B
:1000480003F0A5EF00F076AA2CEF00F02EEF00F0F9
:1000580039EF00F077AA33EF00F035EF00F039EF11
:1000680000F07AEC01F0A5EF00F076A23EEF00F088
:1000780040EF00F04BEF00F077A245EF00F047EFBC
:1000880000F04BEF00F072EC03F0A5EF00F076AE55
:1000980050EF00F052EF00F05DEF00F077AE57EF51
:1000A80000F059EF00F05DEF00F090EC03F0A5EFE1
:1000B80000F076A062EF00F064EF00F06FEF00F060
:1000C80077A069EF00F06BEF00F06FEF00F081ECC4
:1000D80003F0A5EF00F076A874EF00F076EF00F0DB
:1000E80081EF00F077A87BEF00F07DEF00F081EF63
:1000F80000F045EC03F0A5EF00F076A686EF00F0DF
:1001080088EF00F093EF00F077A68DEF00F08FEF07
:1001180000F093EF00F054EC03F0A5EF00F076A4A4
:1001280098EF00F09AEF00F0A5EF00F077A49FEFAA
:1001380000F0A1EF00F0A5EF00F063EC03F0A5EFED
:1001480000F04DC0FBFF4CC0FAFF4BC0E0FF4AC0B7
:10015800E8FF519010009FEF03F0800E6F6E6E5015
:10016800E00B800AD8A4BBEF00F0BDEF00F0B3EFBE
:1001780000F0000E726E200E706E000E0E01FA6F07
:10018800000EFB6F000EF86F000EF96F000EFE6F89
:10019800000EFF6F000EFC6F000EFD6F000EE26F89
:1001A800000EE36F000EE06F000EE16F000EE66FC9
:1001B800000EE76F000EE46F000EE56F000EEA6FA9
:1001C800000EEB6F000EE86F000EE96F000EEE6F89
:1001D800000EEF6F000EEC6F000EED6F000EF26F69
:1001E800000EF36F000EF06F000EF16F000EF66F49
:1001F800000EF76F000EF46F000EF56F3B0E436FA5
:10020800BE0E446F030E456F780E4E6E080E4F6E8D
:1002180022EC04F077907680760E4E6E080E4F6EC4
:1002280018EC04F077927682740E4E6E080E4F6EBC
:1002380004EC04F077947684720E4E6E080E4F6EBE
:10024800FFEC03F077967686700E4E6E080E4F6EB2
:10025800FAEC03F077987688860E4E6E080E4F6E8D
:100268001DEC04F0840E4E6E080E4F6E13EC04F075
:10027800880E4E6E080E4F6E2CEC04F07E0E4E6EFD
:10028800080E4F6EF5EC03F0820E4E6E080E4F6EA0
:100298000EEC04F07C0E4E6E080E4F6EF0EC03F080
:1002A800800E4E6E080E4F6E09EC04F0779A768A2F
:1002B8006E0E4E6E080E4F6EEBEC03F0779C768C4C
:1002C8007A0E4E6E080E4F6E27EC04F0779E768EEF
:1002D800000E6F6E6ECF50F0E00E5016D8A477EF78
:1002E80001F079EF01F06EEF01F0120071AE7FEFCF
:1002F80001F081EF01F08FEF01F002D88EEF01F0ED
:100308000500FA6E2950FD6E2A50FE6EF850FF6EF9
:10031800FA501200719E71AC94EF01F096EF01F063
:10032800A4EF01F002D8A3EF01F00500FA6E275000
:10033800FD6E2850FE6EF850FF6EFA501200719C48
:1003480071AAA9EF01F0ABEF01F0B8EF01F002D804
:10035800B8EF01F00500FA6E2550FD6E2650FE6ECE
:10036800F850FF6EFA50120071A8BDEF01F0BFEF10
:1003780001F0CCEF01F002D8CCEF01F00500FA6EE5
:100388002350FD6E2450FE6EF850FF6EFA50120096
:1003980071A6D1EF01F0D3EF01F0E0EF01F002D840
:1003A800E0EF01F00500FA6E2150FD6E2250FE6E5E
:1003B800F850FF6EFA50120071A4E5EF01F0E7EF74
:1003C80001F0F4EF01F002D8F4EF01F00500FA6E45
:1003D8001F50FD6E2050FE6EF850FF6EFA5012004E
:1003E80071A2F9EF01F0FBEF01F008EF02F002D87B
:1003F80008EF02F00500FA6E1D50FD6E1E50FE6EED
:10040800F850FF6EFA501200779A1200010E382445
:10041800D96EDA6A000EDA22000EDF6EABA417EF8F
:1004280002F019EF02F02DEF02F0010E3824D96E18
:10043800DA6A000EDA22DF8202D82DEF02F0050018
:10044800FA6E3F50FD6E4050FE6EF850FF6EFA5047
:100458001200ABA232EF02F034EF02F048EF02F0E4
:10046800010E3824D96EDA6A000EDA22DF8402D847
:1004780048EF02F00500FA6E3D50FD6E3E50FE6EEC
:10048800F850FF6EFA501200010E3824D96EDA6A5D
:10049800000EDA22DF50D8B454EF02F056EF02F023
:1004A80065EF02F002D863EF02F00500FA6E3B50E8
:1004B800FD6E3C50FE6EF850FF6EFA50120067EF6A
:1004C80002F021EC03F01200FACF46F0FBCF47F020
:1004D800D9CF48F0DACF49F09DA875EF02F077EF51
:1004E80002F08DEF02F09EA87CEF02F07EEF02F0A2
:1004F8008DEF02F002D88BEF02F00500FA6E435040
:10050800FD6E4450FE6EF850FF6EFA501200A8EFD0
:1005180002F09DAA92EF02F094EF02F0A8EF02F029
:100528009EAA99EF02F09BEF02F0A8EF02F002D822
:10053800A8EF02F00500FA6E4150FD6E4250FE6EC3
:10054800F850FF6EFA50120049C0DAFF48C0D9FFD0
:1005580047C0FBFF46C0FAFF519211009D9A140E46
:100568004E6E040E4F6ED7EC03F09D98D80E4E6E6B
:10057800050E4F6ED2EC03F0080EA76E900EAB6E10
:10058800240EAC6EE10EAF6E040E7D6E8A0E4E6EBA
:10059800080E4F6EE1EC03F0620E4E6E080E4F6EC1
:1005A800DCEC03F0680E4E6E080E4F6EE6EC03F0BE
:1005B800000E356E000E3A6E000E396E080E456E4E
:1005C800000E386E000E376E000E366E9D8A1200D1
:1005D800080E4560F2EF02F0F4EF02F00AEF03F0C4
:1005E800110E3924D96EDA6A000EDA22DF50AD6EA8
:1005F800392A070E396403EF03F005EF03F007EF1C
:1006080003F0000E396E452A0BEF03F09D98120097
:10061800000E896E000E8A6E000E8B6EEF0E926EC3
:10062800FB0E936EBF0E946E1F0E0F015D6F070ECB
:100638005C6F000E5B6FF18E1200090E3824D96EC4
:10064800DA6A000EDA22AECFDFFF382A070E3864E6
:1006580030EF03F032EF03F034EF03F0000E386EA2
:10066800362A120002D843EF03F00500FA6E1B5039
:10067800FD6E1C50FE6EF850FF6EFA501200779C0B
:10068800120002D852EF03F00500FA6E2B50FD6EEF
:100698002C50FE6EF850FF6EFA5012007798120038
:1006A80002D861EF03F00500FA6E2D50FD6E2E5052
:1006B800FE6EF850FF6EFA5012007796120002D8BC
:1006C80070EF03F00500FA6E2F50FD6E3050FE6E8D
:1006D800F850FF6EFA5012007794120002D87FEF9C
:1006E80003F00500FA6E3150FD6E3250FE6EF85080
:1006F800FF6EFA5012007792120002D88EEF03F0C4
:100708000500FA6E3350FD6E3450FE6EF850FF6EE1
:10071800FA5012007790120002D89DEF03F00500FE
:10072800FA6E1950FD6E1A50FE6EF850FF6EFA50B0
:100738001200779E120000EE01F03A0EEE6AE8060B
:10074800FDE151905192000EF86E0001CCEF03F0DC
:10075800D08E9F889F8A789C789A7892789E789095
:100768007898789678941200ACEC03F00CEC03F0CF
:10077800C3EC03F0B2EC02F0B1EC00F01200600E32
:10078800D36E000ED26E000E9B6E000E9A6E120093
:10079800B8EC03F0CEEF03F0AFEF00F04EC043F03B
:1007A8004FC044F012004EC041F04FC042F012005A
:1007B8004EC03DF04FC03EF012004EC03FF04FC05B
:1007C80040F012004EC03BF04FC03CF012004EC04B
:1007D8001BF04FC01CF012004EC01FF04FC020F09D
:1007E80012004EC023F04FC024F012004EC02BF070
:1007F8004FC02CF012004EC02DF04FC02EF012004A
:100808004EC02FF04FC030F012004EC01DF04FC048
:100818001EF012004EC021F04FC022F012004EC050
:1008280027F04FC028F012004EC031F04FC032F010
:1008380012004EC029F04FC02AF012004EC033F00B
:100848004FC034F012004EC019F04FC01AF0120019
:100858004EC025F04FC026F01200AB98AB881200AE
:1008680021EC03F012001200120012001200120014
:1008780012001200120012001200120012001200E0
:040888001200120048
:020000040020DA
:08000000FFFFFFFFFFFFFFFF00
:020000040030CA
:0E00000015137F7CFF8991FF0FC00FE00F40AA
:00000001FF
